14:20:30.555555 IP 192.168.1.100 > 192.168.1.1: ICMP echo request, id 1234, seq 1, length 64
	0x0000:  4500 0054 0000 4000 4001 b6e8 c0a8 0164
	0x0010:  c0a8 0101 0800 f7ff 04d2 0001 0001 0203
