14:20:30.555555 IP 192.168.1.100 > 192.168.1.1: ICMP echo request, id 1234, seq 1, length 64
	0x0000:  4500 0054 0000 4000 4001 b6e8 c0a8 0164
	0x0010:  c0a8 0101 0800 f7ff 04d2 0001 0001 0203
	0x0020:  0405 0607 0809 0a0b 0c0d 0e0f 1011 1213
	0x0030:  1415 1617 1819 1a1b 1c1d 1e1f 2021 2223
	0x0040:  2425 2627 2829 2a2b 2c2d 2e2f 3031 3233
	0x0050:  3435 3637

