15:30:45.678901 IP6 2001:db8::1.8080 > 2001:db8::2.80: Flags [S], seq 987654321, win 65535, length 0
	0x0000:  6000 0000 0014 0640 2001 0db8 0000 0000
	0x0010:  0000 0000 0000 0001 2001 0db8 0000 0000
	0x0020:  0000 0000 0000 0002 1f90 0050 3ade 68b1
	0x0030:  0000 0000 5002 ffff 0000 0000

