12:34:56.789012 IP 192.168.1.100.54321 > 192.168.1.1.443: Flags [S], seq 1234567890, win 65535, options [mss 1460,nop,wscale 6,nop,nop,TS val 123456 ecr 0,sackOK,eol], length 0
	0x0000:  4500 003c 1c46 4000 4006 b1e6 c0a8 0164
	0x0010:  c0a8 0101 d431 01bb 4996 02d2 0000 0000
	0x0020:  a002 ffff fe30 0000 0204 05b4 0103 0306
	0x0030:  0101 080a 0001 e240 0000 0000 0402 0000

